:100000000C942A000C943F000C943F000C943F0089
:100010000C943F000C943F000C943F000C943F0064
:100020000C943F000C943F000C943F000C943F0054
:100030000C943F000C943F000C943F000C943F0044
:100040000C943F000C943F000C943F000C943F0034
:100050000C943F0011241FBECFE5D8E0DEBFCDBF1A
:1000600010E0A0E6B0E0ECE6F5E002C005900D92ED
:10007000A036B107D9F70E9483020C94B4020C9405
:100080000000442379F1413009F05FC0813079F0FC
:1000900028F08230A9F08330E1F008952AB381E09E
:1000A00090E001C0880F6A95EAF7822B2CC027B335
:1000B00081E090E001C0880F6A95EAF7822B2EC09C
:1000C00024B381E090E001C0880F6A95EAF7822BA3
:1000D00030C021B381E090E001C0880F6A95EAF753
:1000E000822B32C0813089F028F08230C9F0833011
:1000F00011F108952AB381E090E001C0880F6A955C
:10010000EAF7809582238ABB089527B381E090E0C7
:1001100001C0880F6A95EAF78095822387BB08950E
:1001200024B381E090E001C0880F6A95EAF78095DA
:10013000822384BB089521B381E090E001C0880F41
:100140006A95EAF78095822381BB0895442379F16B
:10015000413009F05FC0813079F028F08230A9F099
:100160008330E1F008952BB381E090E001C0880F67
:100170006A95EAF7822B2CC028B381E090E001C099
:10018000880F6A95EAF7822B2EC025B381E090E0B4
:1001900001C0880F6A95EAF7822B30C022B381E054
:1001A00090E001C0880F6A95EAF7822B32C0813057
:1001B00089F028F08230C9F0833011F108952BB313
:1001C00081E090E001C0880F6A95EAF7809582236C
:1001D0008BBB089528B381E090E001C0880F6A9539
:1001E000EAF78095822388BB089525B381E090E0EB
:1001F00001C0880F6A95EAF78095822385BB089530
:1002000022B381E090E001C0880F6A95EAF78095FB
:10021000822382BB0895813081F028F08230B9F0CA
:100220008330F9F008952BB381E090E001C0880F8E
:100230006A95EAF7822B8BBB089528B381E090E0A2
:1002400001C0880F6A95EAF7822B88BB089525B311
:1002500081E090E001C0880F6A95EAF7822B85BBA8
:10026000089522B381E090E001C0880F6A95EAF713
:10027000822B82BB089540E067E083E00E9441004A
:1002800040E066E083E00E94410040E065E083E0FA
:100290000E94410040E064E083E00E94410041E0B0
:1002A00060E083E00E94410041E061E083E00E9461
:1002B000410041E062E083E00E94410041E063E0F0
:1002C00083E00E94410067E083E00E940B0166E04A
:1002D00083E00E940B0165E083E00E940B0164E073
:1002E00083E00E940B0141E060E083E00E94A600F1
:1002F00041E061E083E00E94A60041E062E083E02B
:100300000E94A60041E063E083E00C94A600CF9336
:10031000C82F40E061E081E00E94A60040E062E07A
:1003200081E00E94A60040E063E081E00E94A60018
:100330008BB39C2F907F8F70892B8BBB41E063E048
:1003400081E00E94A6008FE99FE00197F1F700C0CD
:10035000000040E063E081E00E94A6002BB330E1A2
:10036000C39FC0011124922F9F70892B8BBB41E04A
:1003700063E081E00E94A6008FE99FE00197F1F71A
:1003800000C0000040E063E081E00E94A6008FE131
:100390009EE40197F1F700C00000CF91089541E07D
:1003A00061E081E00E94410041E062E081E00E9462
:1003B000410041E063E081E00E94410041E064E0EF
:1003C00080E00E94410041E065E080E00E94410041
:1003D00041E066E080E00E94410041E067E080E0AB
:1003E0000E9441002FEF81EE94E021508040904028
:1003F000E1F700C0000083E30E94870182E30E94CE
:10040000870188E20E9487018CE00E94870181E0D9
:100410000E94870186E00E94870182E00C94870198
:10042000CF93C82F41E061E081E00E94A60040E048
:1004300062E081E00E94A60040E063E081E00E946B
:10044000A6008C2F807F8BBB41E063E081E00E949F
:10045000A6008FE99FE00197F1F700C0000040E09F
:1004600063E081E00E94A600C295C07FCBBB41E063
:1004700063E081E00E94A6008FE99FE00197F1F719
:1004800000C0000040E063E081E00E94A6008FE130
:100490009EE40197F1F700C00000CF9108950F93FB
:1004A0001F93CF93DF93EC0197FF06C0D195C195C1
:1004B000D1098DE20E94100281E090E02AE0EAE09A
:1004C000F0E0209769F0289F8001299F100D1124EA
:1004D000CE01BF010E948C02800F911FEB01F1CF72
:1004E000CAE0D0E0823091054CF0BE010E948C023F
:1004F0008B01805D0E941002C801F4CFDF91CF9183
:100500001F910F9108950E943B010E94CF0185EA3F
:100510009FEF0E944F02FFCF97FB072E16F4009427
:1005200007D077FD09D00E94A00207FC05D03EF459
:10053000909581959F4F0895709561957F4F08958F
:10054000AA1BBB1B51E107C0AA1FBB1FA617B707F9
:1005500010F0A61BB70B881F991F5A95A9F7809515
:0C0560009095BC01CD010895F894FFCFE8
:00000001FF
