S0120000414D49545F5441534B532E7372656302
S11300000C942A000C94F4000C943F000C943F00D0
S11300100C943F000C943F000C943F000C943F0060
S11300200C943F000C943F000C943F000C943F0050
S11300300C943F000C943F000C943F000C943F0040
S11300400C943F000C943F000C943F000C943F0030
S11300500C943F0011241FBECFE5D8E0DEBFCDBF16
S113006010E0A0E6B0E0E8E3F2E002C005900D92F3
S1130070A036B107D9F70E94EF000C941A010C9432
S11300800000442379F1413009F05FC0813079F0F8
S113009028F08230A9F08330E1F008952AB381E09A
S11300A090E001C0880F6A95EAF7822B2CC027B331
S11300B081E090E001C0880F6A95EAF7822B2EC098
S11300C024B381E090E001C0880F6A95EAF7822B9F
S11300D030C021B381E090E001C0880F6A95EAF74F
S11300E0822B32C0813089F028F08230C9F083300D
S11300F011F108952AB381E090E001C0880F6A9558
S1130100EAF7809582238ABB089527B381E090E0C3
S113011001C0880F6A95EAF78095822387BB08950A
S113012024B381E090E001C0880F6A95EAF78095D6
S1130130822384BB089521B381E090E001C0880F3D
S11301406A95EAF78095822381BB0895813081F016
S113015028F08230B9F08330F9F008952BB381E0B0
S113016090E001C0880F6A95EAF782278BBB089557
S113017028B381E090E001C0880F6A95EAF78227EE
S113018088BB089525B381E090E001C0880F6A958B
S1130190EAF7822785BB089522B381E090E001C08D
S11301A0880F6A95EAF7822782BB08958FB7806823
S11301B08FBF08950E94D6008BB780648BBF85B72C
S11301C0816085BF85B78D7F85BF089541E062E07A
S11301D082E00C94410062E082E00C94A6000E944C
S11301E0DA000E94E600FFCF1F920F920FB60F9223
S11301F011242F933F934F935F936F937F938F9328
S11302009F93AF93BF93EF93FF93F8940E94EB00F7
S11302107894FF91EF91BF91AF919F918F917F91CE
S11302206F915F914F913F912F910F900FBE0F905F
S10B02301F901895F894FFCF0C
S9030000FC
